:020000040800F2
:10000000004000200D14000891130008931300080D
:1000100095130008971300089913000800000000CA
:100020000000000000000000000000009B1300081A
:100030009D130008000000009F130008A113000892
:1000400055140008551400085514000855140008EC
:1000500055140008551400085514000855140008DC
:1000600055140008551400085514000855140008CC
:1000700055140008551400085514000855140008BC
:1000800055140008551400085514000855140008AC
:10009000551400085514000855140008551400089C
:1000A000551400085514000855140008551400088C
:1000B000551400085514000855140008551400087C
:1000C000551400085514000855140008551400086C
:1000D000551400085514000855140008551400085C
:1000E000551400085514000855140008A9130008F9
:1000F000551400080000000000000000551400081E
:10010000000000000000000055140008551400080D
:10011000551400085514000855140008000000008C
:10012000551400080000000000000000000000005E
:0C01300000000000000000005FF808F173
:10013C0010B5054C237833B9044B13B10448AFF315
:10014C0000800123237010BD04000020000000007B
:10015C00B014000808B5034B1BB103490348AFF3B7
:10016C00008008BD0000000008000020B01400084A
:10017C0010B50446074B1868074BA3FB00308009E9
:10018C0000F078F8002221464FF0FF3000F032F8F2
:10019C00002010BD00000020D34D621008B50320D4
:1001AC0000F016F80020FFF7E3FF01F0A5F800209F
:1001BC0008BD0000024A136801331360704700BF8A
:1001CC0020000020014B1868704700BF2000002061
:1001DC00074AD36823F4E0631B041B0C000200F4F1
:1001EC00E060184340F0BF6040F40030D0607047CE
:1001FC0000ED00E030B4174BDB68C3F30223C3F10E
:10020C000704042C28BF04241D1D062D18D9033BFC
:10021C004FF0FF3505FA04F421EA0401994005FA80
:10022C0003F322EA0303194300280BDB0901C9B2CB
:10023C0000F1604000F5614080F8001330BC70475D
:10024C000023E5E700F00F000901C9B2024B195475
:10025C00F4E700BF00ED00E014ED00E000F01F0239
:10026C00400901239340024A42F82030704700BFF6
:10027C0000E100E00138B0F1807F0AD2064B5860F3
:10028C00064AF02182F823100020986007221A6099
:10029C0070470120704700BF10E000E000ED00E067
:1002AC00F0B482B0002336E0032400E00024B44014
:1002BC003C430235584E46F82540584C2568D443EB
:1002CC0004EA05064F6817F4803F01D042EA0506A0
:1002DC00524D2E606D6804EA05064F6817F4003F16
:1002EC0001D042EA05064D4D6E60AD6804EA050684
:1002FC004F6817F4801F01D042EA0506474DAE60E7
:10030C00ED682C404E6816F4001F01D042EA05043B
:10031C00424AD46001330A6832FA03F479D00124DA
:10032C009C402240F6D04D68022D01D0122D10D1E8
:10033C00DE08083650F826C003F00705AF000F257D
:10034C00BD402CEA050C0D69BD4045EA0C0540F892
:10035C00265006685F000325BD40ED4305EA060CF8
:10036C004E6806F00306BE4046EA0C0606604E6870
:10037C0006F1FF3CBCF1010F03D9112E01D0122E56
:10038C0010D1866805EA060CCE68BE4046EA0C061B
:10039C008660466826EA04044E68C6F300169E4042
:1003AC0026434660C46825408C68BC402C43C4601E
:1003BC004C6814F0805FADD0194C256A45F00105EE
:1003CC002562246A04F001040194019C9D08AE1C72
:1003DC00114C54F8267003F00304A6000F24B4400B
:1003EC0027EA04070F4CA0423FF460AF04F5806489
:1003FC00A0420AD004F58064A04208D004F58064C1
:10040C00A0423FF451AF052451E701244FE70224E9
:10041C004DE702B0F0BC7047000001400004014001
:10042C00003802400000024012B909048161704793
:10043C0081617047436959404161704782B0214BDB
:10044C009B6813F0F00F2CD11E4B5B6A13F0805F8E
:10045C0008D01D4B1B6803F4C053B3F5C05F14D018
:10046C0000211FE0174A536A43F080535362536ACA
:10047C0003F080530193019B134B1B6803F4C0538F
:10048C00516A21F080515162E7E7B0F5404F01D03D
:10049C00002107E00D4A136843F0040313600121A7
:1004AC0000E00021094A136823F001030B43136099
:1004BC00136803F001038B4202D0012002B0704795
:1004CC000020FBE70038024000700040003C024076
:1004DC0070B582B00446036813F0010F37D0754B2A
:1004EC009B6803F00C03082B1AD0724B9B6803F02B
:1004FC000C030C2B0FD06368012B66D0002B40F043
:10050C0088806C4B1A6822F480321A601A6822F4C4
:10051C0080221A605EE0674B9B6813F4803FEAD040
:10052C004FF4003393FAA3F3624B19684FF4003382
:10053C0093FAA3F3B3FA83F303F01F03012202FA35
:10054C0003F30B4203D06368002B00F0788323681D
:10055C0013F0020F00F0BF80564B9B6803F00C03A6
:10056C00042B00F09080534B9B6803F00C030C2B76
:10057C0000F08380E368002B00F04B81012292FA9B
:10058C00A2F3B3FA83F303F1845303F58E139B00A8
:10059C001A60FFF717FE0546022393FAA3F3454BA7
:1005AC001968022393FAA3F3B3FA83F303F01F033E
:1005BC00012202FA03F30B4240F01B81FFF702FE0B
:1005CC00401B0228E8D9032040E33A4A136843F45D
:1005DC0080331360636893B3FFF7F4FD05464FF463
:1005EC00003393FAA3F3334B19684FF4003393FAA7
:1005FC00A3F3B3FA83F303F01F03012202FA03F30C
:10060C000B42A4D1FFF7DEFD401B6428E7D9032081
:10061C001CE3052B09D0274B1A6822F480321A6090
:10062C001A6822F480221A60D4E7224B1A6842F42A
:10063C0080221A601A6842F480321A60CAE7FFF707
:10064C00C1FD05464FF4003393FAA3F3194B196817
:10065C004FF4003393FAA3F3B3FA83F303F01F03BD
:10066C00012202FA03F30B423FF471AFFFF7AAFD2C
:10067C00401B6428E6D90320E8E20E4B9B6813F478
:10068C00803F7FF477AF022393FAA3F3094B1968E9
:10069C00022393FAA3F3B3FA83F303F01F030122AB
:1006AC0002FA03F30B4207D0E368934204D0012013
:1006BC00CCE200BF00380240C148436823F4F85331
:1006CC0021694FF4F85292FAA2F2B2FA82F201FACC
:1006DC0002F213434360236813F0100F5CD0B84B45
:1006EC009B6813F00C0F40F0D8804FF4007393FA12
:1006FC00A3F3B34B19684FF4007393FAA3F3B3FA53
:10070C0083F303F01F03012202FA03F30B4203D01D
:10071C00A369002B00F09582206AA94B5B6803F457
:10072C006043984240F29D80FFF788FE002840F01D
:10073C008A82A3494B6823F46043226A13434B60BB
:10074C004B6823F07F43E0694FF07F4292FAA2F2AC
:10075C00B2FA82F200FA02F213434B60236A4FF4AE
:10076C00604292FAA2F2B2FA82F2D3405A1C4FF4CF
:10077C0000439340924A926802F0F002F02191FA01
:10078C00A1F1B1FA81F1CA408E498A5CD3408E4AFC
:10079C0013600020FFF7ECFC236813F0080F00F047
:1007AC0017816369002B00F0E680012191FAA1F218
:1007BC00B2FA82F2854B13449B001960FFF702FDDD
:1007CC000546022393FAA3F27D4A516B93FAA3F3E5
:1007DC00B3FA83F303F01F03012202FA03F30B4273
:1007EC0040F0F680FFF7EEFC401B0228E9D903200D
:1007FC002CE27348436823F4F85321694FF4F85200
:10080C0092FAA2F2B2FA82F201FA02F213434360B4
:10081C0061E7012393FAA3F3B3FA83F303F184534F
:10082C0003F58E139B0000221A60FFF7CBFC0546E4
:10083C00022393FAA3F3624B1968022393FAA3F3EE
:10084C00B3FA83F303F01F03012202FA03F30B4202
:10085C003FF441AFFFF7B6FC401B0228E8D9032058
:10086C00F4E157494B6823F46043184348604B68E4
:10087C0023F07F43E0694FF07F4292FAA2F2B2FA82
:10088C0082F200FA02F213434B60206AFFF7D6FDA6
:10089C0000283FF463AF0120D8E1A369002B3FD0BF
:1008AC004FF4807393FAA3F3B3FA83F303F18453F5
:1008BC0003F58E139B0001221A60FFF783FC05469B
:1008CC004FF4007393FAA3F33D4B19684FF4007384
:1008DC0093FAA3F3B3FA83F303F01F03012202FA92
:1008EC0003F30B4206D1FFF76DFC401B0228E7D93E
:1008FC000320ABE132494B6823F46043226A134373
:10090C004B604B6823F07F43E0694FF07F4292FAD3
:10091C00A2F2B2FA82F200FA02F213434B603BE706
:10092C004FF4807393FAA3F3B3FA83F303F1845374
:10093C0003F58E139B0000221A60FFF743FC05465B
:10094C004FF4007393FAA3F31D4B19684FF4007323
:10095C0093FAA3F3B3FA83F303F01F03012202FA11
:10096C0003F30B423FF418AFFFF72CFC401B02289B
:10097C00E6D903206AE1012292FAA2F2B2FA82F2DB
:10098C00124B13449B0000221A60FFF71BFC054618
:10099C00022393FAA3F20A4A516B93FAA3F3B3FA24
:1009AC0083F303F01F03012202FA03F30B420FD06F
:1009BC00FFF708FC401B0228EAD9032046E100BFE0
:1009CC0000380240D414000800000020A0C191108F
:1009DC00236813F0040F00F092809E4B5B6A13F0B7
:1009EC00805F1ED19B4B5A6A42F080525A625B6AFE
:1009FC0003F080530193019B0125974B1B6813F463
:100A0C00807F10D0A368012B21D0002B43D1914BB8
:100A1C005A6B22F480725A635A6B22F480625A63C6
:100A2C001AE00025E9E78C4A136843F480731360DD
:100A3C00FFF7C8FB0646884B1B6813F4807FE1D197
:100A4C00FFF7C0FB801B6428F5D90320FEE0814A28
:100A5C00536B43F480735363A36893B3FFF7B2FBF8
:100A6C0006464FF4007393FAA3F27A4A516B93FA49
:100A7C00A3F3B3FA83F303F01F03012202FA03F387
:100A8C000B423BD1FFF79EFB801B41F2883398420F
:100A9C00E7D90320DAE0052B09D06E4B5A6B22F410
:100AAC0080725A635A6B22F480625A63D4E7694BA2
:100ABC005A6B42F480625A635A6B42F480725A63E6
:100ACC00CAE7FFF77FFB06464FF4007393FAA3F2D5
:100ADC00604A516B93FAA3F3B3FA83F303F01F0349
:100AEC00012202FA03F30B4208D0FFF76BFB801BC9
:100AFC0041F288339842E7D90320A7E0B5BB636A7B
:100B0C00002B00F0A280534A926802F00C020C2ACF
:100B1C0000F09E80022B2FD04FF0807393FAA3F33A
:100B2C00B3FA83F303F1845303F58E139B00002275
:100B3C001A60FFF747FB04464FF0007393FAA3F3D8
:100B4C00444B19684FF0007393FAA3F3B3FA83F391
:100B5C0003F01F03012202FA03F30B426DD0FFF7DF
:100B6C0031FB001B0228E7D903206FE0394A536A96
:100B7C0023F080535362C2E74FF0807393FAA3F3D0
:100B8C00B3FA83F303F1845303F58E139B00002215
:100B9C001A60FFF717FB05464FF0007393FAA3F3A7
:100BAC002C4B19684FF0007393FAA3F3B3FA83F349
:100BBC0003F01F03012202FA03F30B4206D0FFF7E6
:100BCC0001FB401B0228E7D903203FE021498B6839
:100BDC0023F47D03A26AE06A0243206B02431343B1
:100BEC008B604FF0807393FAA3F3B3FA83F303F1A2
:100BFC00845303F58E139B0001221A60FFF7E2FA6F
:100C0C0004464FF0007393FAA3F3124B19684FF09C
:100C1C00007393FAA3F3B3FA83F303F01F030122D7
:100C2C0002FA03F30B4206D1FFF7CCFA001B0228A1
:100C3C00E7D903200AE0002008E0002006E00120AC
:100C4C0004E0012002E0012000E0002002B070BDB1
:100C5C000120FBE70038024000700040224B9868EE
:100C6C0000F00C02082A3CD00C2A13D0042A0FD016
:100C7C001D4B586800F460404FF4604393FAA3F3A3
:100C8C00B3FA83F3D840431C4FF4004098407047AC
:100C9C001648704700F470114FF4701292FAA2F2D9
:100CAC00B2FA82F221FA02F211498A5C00F4400095
:100CBC004FF4400393FAA3F3B3FA83F3D840013013
:100CCC00094B9B6813F4803F05D00A4B03FB02F3DE
:100CDC00B3FBF0F07047054B03FB02F3B3FBF0F0F2
:100CEC0070470448704700BF003802400024F400ED
:100CFC00C814000800127A008D4B1B6803F0010326
:100D0C008B4214D201290CD0894A136823F00103B9
:100D1C000B431360136803F001038B4207D00120CF
:100D2C007047834A136843F004031360ECE770B513
:100D3C00036813F0020F06D07E4A936823F0F00389
:100D4C008468234393600C460546036813F0010F37
:100D5C0000F0A3804368022B18D0032B48D0012B42
:100D6C005BD04FF4007292FAA2F2724A10684FF400
:100D7C00007292FAA2F2B2FA82F202F01F02012180
:100D8C0001FA02F2024215D10120CDE04FF40032FB
:100D9C0092FAA2F2674A10684FF4003292FAA2F269
:100DAC00B2FA82F202F01F02012101FA02F20242AF
:100DBC0000F0BB805F498A6822F0030213438B600A
:100DCC00FFF700FA06466B68022B39D0032B46D08E
:100DDC00012B53D0574B9B6813F00C0F5DD0FFF7D2
:100DEC00F1F9801B41F288339842F3D903209BE040
:100DFC004FF0007292FAA2F24E4A10684FF0007255
:100E0C0092FAA2F2B2FA82F202F01F02012101FA66
:100E1C0002F20242CED1012086E0022292FAA2F224
:100E2C00444A1068022292FAA2F2B2FA82F202F05A
:100E3C001F02012101FA02F20242BBD1012073E030
:100E4C003C4B9B6803F00C03082B26D0FFF7BAF938
:100E5C00801B41F288339842F2D9032064E0354B71
:100E6C009B6803F00C030C2B17D0FFF7ABF9801B1E
:100E7C0041F288339842F2D9032055E02D4B9B6800
:100E8C0003F00C03042B08D0FFF79CF9801B41F2F4
:100E9C0088339842F2D9032046E0254B1B6803F0B7
:100EAC000103A34214D9012C0CD0214A136823F05E
:100EBC00010323431360136803F00103A34207D01B
:100ECC00012031E01A4A136843F004031360ECE785
:100EDC002B6813F0040F06D0164A936823F4E063D2
:100EEC00E9680B4393602B6813F0080F07D0114A85
:100EFC00936823F46053296943EAC1039360FFF7B5
:100F0C00ADFE0C4B9B6803F0F003F02292FAA2F2B8
:100F1C00B2FA82F2D340084AD35CD840074B18602F
:100F2C000020FFF725F9002070BD0120FCE700BF71
:100F3C00003C024000380240D4140008000000209D
:100F4C000368B0F1804F0AD0184A904207D002F5DE
:100F5C008062904203D002F58032904203D123F09C
:100F6C0070034A681343B0F1804F12D00F4A90427D
:100F7C000FD002F5806290420BD002F58032904285
:100F8C0007D002F58062904203D002F58062904255
:100F9C0003D123F44073CA68134303608B68C362A4
:100FAC000B68836201234361704700BF000400405B
:100FBC00A8B110B5044690F835305BB1022384F823
:100FCC003530211D2068FFF7BBFF012384F8353035
:100FDC00002010BD80F8343000F0B4F9EEE70120A9
:100FEC0070470268D36843F00103D360026813684A
:100FFC0043F001031360002070477047704770473F
:10100C007047704710B5044603681A6912F0020F56
:10101C0011D0DA6812F0020F0DD06FF002021A61D3
:10102C000123037503689B6913F0030F5ED0FFF770
:10103C00E6FF0023237523681A6912F0040F12D0FF
:10104C00DA6812F0040F0ED06FF004021A6102235A
:10105C00237523689B6913F4407F4DD02046FFF71E
:10106C00CEFF0023237523681A6912F0080F12D0E3
:10107C00DA6812F0080F0ED06FF008021A61042320
:10108C0023752368DB6913F0030F3CD02046FFF770
:10109C00B6FF0023237523681A6912F0100F12D0C3
:1010AC00DA6812F0100F0ED06FF010021A610823DC
:1010BC0023752368DB6913F4407F2BD02046FFF7A0
:1010CC009EFF0023237523681A6912F0010F03D0C9
:1010DC00DA6812F0010F24D123681A6912F0400F5C
:1010EC0003D0DA6812F0400F22D110BDFFF786FF53
:1010FC002046FFF785FF9CE72046FFF77FFF204641
:10110C00FFF77EFFADE72046FFF778FF2046FFF79D
:10111C0077FFBEE72046FFF771FF2046FFF770FF11
:10112C00CFE76FF001021A612046FFF766FFD3E7A5
:10113C006FF040021A612046FFF763FFD5E790F885
:10114C003430012B22D030B4012280F83420022319
:10115C0080F835300468636823F0700363600468BA
:10116C0063680D682B4363600468A36823F08003F5
:10117C00A3600468A36849680B43A36080F835201A
:10118C00002380F83430184630BC7047022070477A
:10119C0070B58AB0002405940694079408940994B9
:1011AC00204BDA6942F00402DA61DA6902F00402D7
:1011BC000192019ADA6942F02002DA61DA6902F0EE
:1011CC0020020292029ADA6942F00102DA61DA69CB
:1011DC0002F001020392039ADA6942F00202DA6128
:1011EC00DB6903F002030493049B0F4D22464FF47A
:1011FC0040712846FFF718F9012605960B4B06930C
:10120C00079405A90A48FFF74BF84FF44073059370
:10121C0006960794089405A92846FFF741F80AB0EA
:10122C0070BD00BF003802400008024000001210E0
:10123C000000024030B583B00025009501950A4CA2
:10124C000A4B23604FF4FA436360A5604FF4FA73C2
:10125C00E3602046FFF7ACFE0095019569462046F9
:10126C00FFF76DFF03B030BD2400002000100040DC
:10127C0030B593B03422002105A800F00BF90024FE
:10128C0000940194029403940494124A136823F476
:10129C00C05343F4006313600223059301250895A2
:1012AC00102209920E930F944FF4002310934FF4D5
:1012BC000003119305A8FFF70BF90F2300930323E9
:1012CC00019302940394049429466846FFF714FD95
:1012DC0013B030BD0070004008B5FEF75FFFFFF79C
:1012EC00C7FFFFF755FFFFF7A5FF0248FFF779FE91
:1012FC00FEE700BF2400002000B585B0104B5A6AF1
:10130C0042F000425A625A6A02F000420192019A7B
:10131C001A6A42F001021A621A6A02F0010202927F
:10132C00029A5A6A42F080525A625B6A03F0805306
:10133C000393039B0720FEF74BFF05B05DF804FBFE
:10134C000038024002680E4B9A4200D0704700B53C
:10135C0083B003F50A335A6A42F010025A625B6A90
:10136C0003F010030193019B002211462B20FEF782
:10137C0041FF2B20FEF772FF03B05DF804FB00BFAA
:10138C00001000407047FEE7FEE7FEE7FEE77047FF
:10139C007047704708B5FEF70DFF08BD08B5044847
:1013AC00FFF730FE4FF480710248FFF743F808BD99
:1013BC0024000020000802400E4B1A6842F4807290
:1013CC001A6099680C4A0A409A601A6822F088528E
:1013DC0022F001121A601A6822F480221A609A68AC
:1013EC0022F47D029A600022DA60044B4FF0006216
:1013FC009A607047003802400CC0FF8800ED00E096
:10140C00002103E00B4B5B58435004310A480B4B53
:10141C0042189A42F6D30A4A02E0002342F8043BEF
:10142C00084B9A42F9D3FFF7C7FF00F00FF8FFF70C
:10143C0053FF7047F4140008000000200400002043
:10144C00040000205C000020FEE7000070B50025C1
:10145C000C4E0D4CA41BA410A54209D100F022F88F
:10146C0000250A4E0A4CA41BA410A54205D170BD40
:10147C0056F8253098470135EEE756F82530984751
:10148C000135F2E7EC140008EC140008EC14000829
:10149C00F014000803460244934200D1704703F84D
:1014AC00011BF9E7F8B500BFF8BC08BC9E467047B5
:0C14BC00F8B500BFF8BC08BC9E467047A5
:1014C800030406080C10182030000000000000007B
:1014D80000000000010203040607080900000000DC
:0414E80001020304F6
:0414EC006101000892
:0414F0003D010008B2
:0414F40068FF1F006E
:040000050800140DCE
:00000001FF
