:020000040800F2
:10000000004000200D150008B9130008BB130008BC
:10001000BD130008BF130008C11300080000000052
:10002000000000000000000000000000C3130008F2
:10003000C513000800000000C7130008C91300081A
:1000400055150008551500085515000855150008E8
:1000500055150008551500085515000855150008D8
:1000600055150008551500085515000855150008C8
:1000700055150008551500085515000855150008B8
:1000800055150008551500085515000855150008A8
:100090005515000855150008551500085515000898
:1000A0005515000855150008551500085515000888
:1000B0005515000855150008551500085515000878
:1000C0005515000855150008551500085515000868
:1000D0005515000855150008551500085515000858
:1000E0005515000855150008551500085515000848
:1000F000551500080000000000000000551500081C
:10010000000000000000000055150008551500080B
:100110005515000855150008551500080000000089
:10012000551500080000000000000000000000005D
:0C01300000000000000000005FF808F173
:10013C0010B5054C237833B9044B13B10448AFF315
:10014C0000800123237010BD04000020000000007B
:10015C00B015000808B5034B1BB103490348AFF3B6
:10016C00008008BD0000000008000020B015000849
:10017C0010B50446074B1868074BA3FB00308009E9
:10018C0000F07AF8002221464FF0FF3000F040F8E2
:10019C00002010BD00000020D34D621008B50320D4
:1001AC0000F024F80020FFF7E3FF01F0D9F800205D
:1001BC0008BD0000024A136801331360704700BF8A
:1001CC0024000020014B1868704700BF2400002059
:1001DC0010B582B00190FFF7F5FF0446FFF7F2FF70
:1001EC00001B019B9842F9D302B010BD074AD3689B
:1001FC0023F4E0631B041B0C000200F4E0601843C2
:10020C0040F0BF6040F40030D060704700ED00E07B
:10021C0030B4174BDB68C3F30223C3F10704042C7F
:10022C0028BF04241D1D062D18D9033B4FF0FF35A4
:10023C0005FA04F421EA0401994005FA03F322EAD1
:10024C000303194300280BDB0901C9B200F160401C
:10025C0000F5614080F8001330BC70470023E5E7DF
:10026C0000F00F000901C9B2024B1954F4E700BFAA
:10027C0000ED00E014ED00E00138B0F1807F0AD20F
:10028C00064B5860064AF02182F823100020986033
:10029C0007221A6070470120704700BF10E000E091
:1002AC0000ED00E0F0B482B0002336E0032400E05F
:1002BC000024B4403C430235584E46F82540584C77
:1002CC002568D44304EA05064F6817F4803F01D033
:1002DC0042EA0506524D2E606D6804EA05064F6829
:1002EC0017F4003F01D042EA05064D4D6E60AD6833
:1002FC0004EA05064F6817F4801F01D042EA050690
:10030C00474DAE60ED682C404E6816F4001F01D0CE
:10031C0042EA0504424AD46001330A6832FA03F413
:10032C0079D001249C402240F6D04D68022D01D09A
:10033C00122D10D1DE08083650F826C003F0070540
:10034C00AF000F25BD402CEA050C0D69BD4045EAF8
:10035C000C0540F8265006685F000325BD40ED43B0
:10036C0005EA060C4E6806F00306BE4046EA0C068B
:10037C0006604E6806F1FF3CBCF1010F03D9112E4B
:10038C0001D0122E10D1866805EA060CCE68BE404C
:10039C0046EA0C068660466826EA04044E68C6F3F4
:1003AC0000169E4026434660C46825408C68BC40BD
:1003BC002C43C4604C6814F0805FADD0194C256A96
:1003CC0045F001052562246A04F001040194019CA6
:1003DC009D08AE1C114C54F8267003F00304A600C3
:1003EC000F24B44027EA04070F4CA0423FF460AF3F
:1003FC0004F58064A0420AD004F58064A04208D0C1
:10040C0004F58064A0423FF451AF052451E7012468
:10041C004FE702244DE702B0F0BC704700000140EA
:10042C0000040140003802400000024012B90904E7
:10043C00816170478161704782B0214B9B6813F0DA
:10044C00F00F2CD11E4B5B6A13F0805F08D01D4B54
:10045C001B6803F4C053B3F5C05F14D000211FE038
:10046C00174A536A43F080535362536A03F0805324
:10047C000193019B134B1B6803F4C053516A21F089
:10048C0080515162E7E7B0F5404F01D0002107E001
:10049C000D4A136843F004031360012100E00021AE
:1004AC00094A136823F001030B431360136803F02C
:1004BC0001038B4202D0012002B070470020FBE701
:1004CC000038024000700040003C024070B582B021
:1004DC000446036813F0010F37D0754B9B6803F08B
:1004EC000C03082B1AD0724B9B6803F00C030C2BDB
:1004FC000FD06368012B66D0002B40F088806C4BCA
:10050C001A6822F480321A601A6822F480221A6067
:10051C005EE0674B9B6813F4803FEAD04FF40033E6
:10052C0093FAA3F3624B19684FF4003393FAA3F3D5
:10053C00B3FA83F303F01F03012202FA03F30B4215
:10054C0003D06368002B00F07883236813F0020F4C
:10055C0000F0BF80564B9B6803F00C03042B00F09B
:10056C009080534B9B6803F00C030C2B00F08380A2
:10057C00E368002B00F04B81012292FAA2F3B3FA4C
:10058C0083F303F1845303F58E139B001A60FFF77A
:10059C0019FE0546022393FAA3F3454B196802236F
:1005AC0093FAA3F3B3FA83F303F01F03012202FAC5
:1005BC0003F30B4240F01B81FFF704FE401B0228A3
:1005CC00E8D9032040E33A4A136843F480331360BC
:1005DC00636893B3FFF7F6FD05464FF4003393FAC7
:1005EC00A3F3334B19684FF4003393FAA3F3B3FA24
:1005FC0083F303F01F03012202FA03F30B42A4D18D
:10060C00FFF7E0FD401B6428E7D903201CE3052B12
:10061C0009D0274B1A6822F480321A601A6822F427
:10062C0080221A60D4E7224B1A6842F480221A60A6
:10063C001A6842F480321A60CAE7FFF7C3FD054618
:10064C004FF4003393FAA3F3194B19684FF40033AA
:10065C0093FAA3F3B3FA83F303F01F03012202FA14
:10066C0003F30B423FF471AFFFF7ACFD401B642862
:10067C00E6D90320E8E20E4B9B6813F4803F7FF42D
:10068C0077AF022393FAA3F3094B1968022393FA69
:10069C00A3F3B3FA83F303F01F03012202FA03F36B
:1006AC000B4207D0E368934204D00120CCE200BF98
:1006BC0000380240C148436823F4F85321694FF4D1
:1006CC00F85292FAA2F2B2FA82F201FA02F213434F
:1006DC004360236813F0100F5CD0B84B9B6813F089
:1006EC000C0F40F0D8804FF4007393FAA3F3B34B84
:1006FC0019684FF4007393FAA3F3B3FA83F303F07E
:10070C001F03012202FA03F30B4203D0A369002B4F
:10071C0000F09582206AA94B5B6803F46043984211
:10072C0040F29D80FFF788FE002840F08A82A349A2
:10073C004B6823F46043226A13434B604B6823F0ED
:10074C007F43E0694FF07F4292FAA2F2B2FA82F252
:10075C0000FA02F213434B60236A4FF4604292FAA0
:10076C00A2F2B2FA82F2D3405A1C4FF400439340E7
:10077C00924A926802F0F002F02191FAA1F1B1FADA
:10078C0081F1CA408E498A5CD3408E4A13600020A6
:10079C00FFF7EEFC236813F0080F00F01781636974
:1007AC00002B00F0E680012191FAA1F2B2FA82F25C
:1007BC00854B13449B001960FFF704FD054602238B
:1007CC0093FAA3F27D4A516B93FAA3F3B3FA83F332
:1007DC0003F01F03012202FA03F30B4240F0F680F0
:1007EC00FFF7F0FC401B0228E9D903202CE27348E8
:1007FC00436823F4F85321694FF4F85292FAA2F2A9
:10080C00B2FA82F201FA02F21343436061E7012368
:10081C0093FAA3F3B3FA83F303F1845303F58E1322
:10082C009B0000221A60FFF7CDFC0546022393FAC9
:10083C00A3F3624B1968022393FAA3F3B3FA83F37D
:10084C0003F01F03012202FA03F30B423FF441AF02
:10085C00FFF7B8FC401B0228E8D90320F4E1574904
:10086C004B6823F46043184348604B6823F07F4384
:10087C00E0694FF07F4292FAA2F2B2FA82F200FAE9
:10088C0002F213434B60206AFFF7D6FD00283FF4B9
:10089C0063AF0120D8E1A369002B3FD04FF48073E4
:1008AC0093FAA3F3B3FA83F303F1845303F58E1392
:1008BC009B0001221A60FFF785FC05464FF400737C
:1008CC0093FAA3F33D4B19684FF4007393FAA3F317
:1008DC00B3FA83F303F01F03012202FA03F30B4272
:1008EC0006D1FFF76FFC401B0228E7D90320ABE1D0
:1008FC0032494B6823F46043226A13434B604B68C4
:10090C0023F07F43E0694FF07F4292FAA2F2B2FAF1
:10091C0082F200FA02F213434B603BE74FF4807310
:10092C0093FAA3F3B3FA83F303F1845303F58E1311
:10093C009B0000221A60FFF745FC05464FF400733C
:10094C0093FAA3F31D4B19684FF4007393FAA3F3B6
:10095C00B3FA83F303F01F03012202FA03F30B42F1
:10096C003FF418AFFFF72EFC401B0228E6D90320FA
:10097C006AE1012292FAA2F2B2FA82F2124B134409
:10098C009B0000221A60FFF71DFC0546022393FA18
:10099C00A3F20A4A516B93FAA3F3B3FA83F303F06D
:1009AC001F03012202FA03F30B420FD0FFF70AFCDC
:1009BC00401B0228EAD9032046E100BF0038024060
:1009CC00D415000800000020A0C19110236813F07A
:1009DC00040F00F092809E4B5B6A13F0805F1ED177
:1009EC009B4B5A6A42F080525A625B6A03F0805306
:1009FC000193019B0125974B1B6813F4807F10D04A
:100A0C00A368012B21D0002B43D1914B5A6B22F4BC
:100A1C0080725A635A6B22F480625A631AE0002582
:100A2C00E9E78C4A136843F480731360FFF7CAFB41
:100A3C000646884B1B6813F4807FE1D1FFF7C2FB9D
:100A4C00801B6428F5D90320FEE0814A536B43F4E4
:100A5C0080735363A36893B3FFF7B4FB06464FF45C
:100A6C00007393FAA3F27A4A516B93FAA3F3B3FA95
:100A7C0083F303F01F03012202FA03F30B423BD171
:100A8C00FFF7A0FB801B41F288339842E7D9032083
:100A9C00DAE0052B09D06E4B5A6B22F480725A6344
:100AAC005A6B22F480625A63D4E7694B5A6B42F456
:100ABC0080625A635A6B42F480725A63CAE7FFF73A
:100ACC0081FB06464FF4007393FAA3F2604A516B14
:100ADC0093FAA3F3B3FA83F303F01F03012202FA90
:100AEC0003F30B4208D0FFF76DFB801B41F28833F8
:100AFC009842E7D90320A7E0B5BB636A002B00F04E
:100B0C00A280534A926802F00C020C2A00F09E80DC
:100B1C00022B2FD04FF0807393FAA3F3B3FA83F325
:100B2C0003F1845303F58E139B0000221A60FFF728
:100B3C0049FB04464FF0007393FAA3F3444B196836
:100B4C004FF0007393FAA3F3B3FA83F303F01F038C
:100B5C00012202FA03F30B426DD0FFF733FB001BAB
:100B6C000228E7D903206FE0394A536A23F08053F7
:100B7C005362C2E74FF0807393FAA3F3B3FA83F393
:100B8C0003F1845303F58E139B0000221A60FFF7C8
:100B9C0019FB05464FF0007393FAA3F32C4B19681D
:100BAC004FF0007393FAA3F3B3FA83F303F01F032C
:100BBC00012202FA03F30B4206D0FFF703FB401BA2
:100BCC000228E7D903203FE021498B6823F47D03F9
:100BDC00A26AE06A0243206B024313438B604FF01E
:100BEC00807393FAA3F3B3FA83F303F1845303F5FD
:100BFC008E139B0001221A60FFF7E4FA04464FF0B3
:100C0C00007393FAA3F3124B19684FF0007393FA25
:100C1C00A3F3B3FA83F303F01F03012202FA03F3E5
:100C2C000B4206D1FFF7CEFA001B0228E7D90320AE
:100C3C000AE0002008E0002006E0012004E001208A
:100C4C0002E0012000E0002002B070BD0120FBE7B3
:100C5C000038024000700040224B986800F00C02F3
:100C6C00082A3CD00C2A13D0042A0FD01D4B5868EC
:100C7C0000F460404FF4604393FAA3F3B3FA83F3A8
:100C8C00D840431C4FF400409840704716487047BA
:100C9C0000F470114FF4701292FAA2F2B2FA82F2CE
:100CAC0021FA02F211498A5C00F440004FF440032F
:100CBC0093FAA3F3B3FA83F3D8400130094B9B6842
:100CCC0013F4803F05D00A4B03FB02F3B3FBF0F0A7
:100CDC007047054B03FB02F3B3FBF0F0704704487D
:100CEC00704700BF003802400024F400C81500080B
:100CFC0000127A008D4B1B6803F001038B4214D257
:100D0C0001290CD0894A136823F001030B431360AB
:100D1C00136803F001038B4207D001207047834A0C
:100D2C00136843F004031360ECE770B5036813F029
:100D3C00020F06D07E4A936823F0F00384682343A5
:100D4C0093600C460546036813F0010F00F0A38076
:100D5C004368022B18D0032B48D0012B5BD04FF4E7
:100D6C00007292FAA2F2724A10684FF4007292FA70
:100D7C00A2F2B2FA82F202F01F02012101FA02F28F
:100D8C00024215D10120CDE04FF4003292FAA2F2CA
:100D9C00674A10684FF4003292FAA2F2B2FA82F269
:100DAC0002F01F02012101FA02F2024200F0BB80A4
:100DBC005F498A6822F0030213438B60FFF702FA43
:100DCC0006466B68022B39D0032B46D0012B53D02F
:100DDC00574B9B6813F00C0F5DD0FFF7F3F9801B9A
:100DEC0041F288339842F3D903209BE04FF0007214
:100DFC0092FAA2F24E4A10684FF0007292FAA2F2E6
:100E0C00B2FA82F202F01F02012101FA02F202424E
:100E1C00CED1012086E0022292FAA2F2444A106856
:100E2C00022292FAA2F2B2FA82F202F01F0201211D
:100E3C0001FA02F20242BBD1012073E03C4B9B68E9
:100E4C0003F00C03082B26D0FFF7BCF9801B41F2F2
:100E5C0088339842F2D9032064E0354B9B6803F049
:100E6C000C030C2B17D0FFF7ADF9801B41F2883324
:100E7C009842F2D9032055E02D4B9B6803F00C03EC
:100E8C00042B08D0FFF79EF9801B41F2883398425F
:100E9C00F2D9032046E0254B1B6803F00103A34263
:100EAC0014D9012C0CD0214A136823F001032343DD
:100EBC001360136803F00103A34207D0012031E053
:100ECC001A4A136843F004031360ECE72B6813F021
:100EDC00040F06D0164A936823F4E063E9680B43C9
:100EEC0093602B6813F0080F07D0114A936823F412
:100EFC006053296943EAC1039360FFF7ADFE0C4BC5
:100F0C009B6803F0F003F02292FAA2F2B2FA82F29A
:100F1C00D340084AD35CD840074B18600020FFF739
:100F2C0027F9002070BD0120FCE700BF003C024007
:100F3C0000380240D4150008000000200368B0F10E
:100F4C00804F0AD0184A904207D002F58062904236
:100F5C0003D002F58032904203D123F070034A682B
:100F6C001343B0F1804F12D00F4A90420FD002F5CC
:100F7C00806290420BD002F58032904207D002F58D
:100F8C008062904203D002F58062904203D123F438
:100F9C004073CA68134303608B68C3620B68836237
:100FAC0001234361704700BF0004004030B4036A62
:100FBC0023F001030362036A4568846924F0730417
:100FCC000A68224323F002048B6823434560826144
:100FDC004A684263036230BC704730B4036A23F042
:100FEC0010030362036A4468826922F4E6420D68C6
:100FFC0042EA052223F020038D6843EA051344607E
:10100C0082614A688263036230BC704730B4036A01
:10101C0023F480730362036A4568C46924F0730483
:10102C000A68224323F400738C6843EA0423456066
:10103C00C2614A68C263036230BC704730B4036A51
:10104C0023F480530362036A4468C26922F4E642C3
:10105C000D6842EA052223F400538D6843EA0533F8
:10106C004460C2614A680264036230BC704710B4C9
:10107C00012303FA01F4036A23EA04030362036AFB
:10108C008A401343036210BC7047A8B110B50446E4
:10109C0090F835305BB1022384F83530211D20687F
:1010AC00FFF74CFF012384F83530002010BD80F889
:1010BC00343000F0ABF9EEE70120704710B5044670
:1010CC0001220068FFF7D3FF2268136843F0010385
:1010DC001360002010BD38B590F83430012B66D069
:1010EC000D460446012380F83430022380F8353055
:1010FC000C2A1AD8DFE802F0071919192019191946
:10110C003419191947000068FFF750FF22689369DA
:10111C0043F0080393612268936923F004039361FD
:10112C0022689369E9680B439361012384F8353095
:10113C00002084F8340038BD0068FFF74EFF2268A9
:10114C00936943F4006393612268936923F4806389
:10115C00936122689369E96843EA01239361E4E7A8
:10116C000068FFF753FF2268D36943F00803D3618B
:10117C002268D36923F00403D3612268D369E96838
:10118C000B43D361D1E70068FFF758FF2268D3699E
:10119C0043F40063D3612268D36923F48063D36181
:1011AC002268D369E96843EA0123D361BDE70220D1
:1011BC00C1E790F83430012B22D030B4012280F8F2
:1011CC003420022380F835300468636823F0700300
:1011DC006360046863680D682B4363600468A368EC
:1011EC0023F08003A3600468A36849680B43A360E1
:1011FC0080F83520002380F83430184630BC704716
:10120C000220704770B58AB00024059406940794A8
:10121C0008940994204BDA6942F00402DA61DA6925
:10122C0002F004020192019ADA6942F02002DA61BA
:10123C00DA6902F020020292029ADA6942F00102A3
:10124C00DA61DA6902F001020392039ADA6942F078
:10125C000202DA61DB6903F002030493049B0F4D75
:10126C0022464FF440712846FFF7E0F80126059618
:10127C000B4B0693079405A90A48FFF713F84FF494
:10128C004073059306960794089405A92846FFF722
:10129C0009F80AB070BD00BF0038024000080240D7
:1012AC00000012100000024030B593B0342200212F
:1012BC0005A800F06FF900240094019402940394A3
:1012CC000494124A136823F4C05343F4006313606C
:1012DC000223059301250895102209920E930F9471
:1012EC004FF4802310934FF48003119305A8FFF75C
:1012FC00EDF80F23009303230193029403940494B9
:10130C0029466846FFF7F6FC13B030BD007000406C
:10131C0008B5FEF743FFFFF7C7FFFFF773FF00F0B9
:10132C00B1F800210B48FFF7C9FE0EE0094A12681C
:10133C0053630A20FEF74CFF074A138801331380CE
:10134C00054B1B88B3F57A7FF0D3034B00221A8030
:10135C00F6E700BF280000202000002070470000A6
:10136C0000B585B0104B5A6A42F000425A625A6A74
:10137C0002F000420192019A1A6A42F001021A62CA
:10138C001A6A02F001020292029A5A6A42F08052E0
:10139C005A625B6A03F080530393039B0720FEF7AA
:1013AC0025FF05B05DF804FB003802407047FEE7EE
:1013BC00FEE7FEE7FEE770477047704708B5FEF79B
:1013CC00F9FE08BD0E4B1A6842F480721A609968D7
:1013DC000C4A0A409A601A6822F0885222F00112D4
:1013EC001A601A6822F480221A609A6822F47D022C
:1013FC009A600022DA60044B4FF000629A607047EA
:10140C00003802400CC0FF8800ED00E00368B3F127
:10141C00804F00D0704782B003F50E335A6A42F009
:10142C0001025A625B6A03F001030193019B02B053
:10143C007047000000B587B000230193029303931B
:10144C00049305930368B3F1804F02D007B05DF8A5
:10145C0004FB03F50E33DA6942F00102DA61DB6951
:10146C0003F001030093009B2023019302230293BA
:10147C000123059301A90248FEF714FFE6E700BF1C
:10148C000000024000B589B0002306930793019336
:10149C00029303930493059318484FF08042026023
:1014AC004FF4FA42426083604FF47A72C260036177
:1014BC00FFF7EBFDC0B900230693079306A90F486D
:1014CC00FFF777FE98B960230193002202920392F2
:1014DC00049201A90948FFF7FEFD58B90748FFF728
:1014EC00A9FF09B05DF804FBFFF738FFE3E7FFF74E
:1014FC0035FFE8E7FFF732FFF0E700BF28000020D8
:10150C00002103E00B4B5B58435004310A480B4B52
:10151C0042189A42F6D30A4A02E0002342F8043BEE
:10152C00084B9A42F9D3FFF74DFF00F00FF8FFF785
:10153C00EFFE7047F41500080000002004000020A6
:10154C000400002060000020FEE7000070B50025BC
:10155C000C4E0D4CA41BA410A54209D100F022F88E
:10156C0000250A4E0A4CA41BA410A54205D170BD3F
:10157C0056F8253098470135EEE756F82530984750
:10158C000135F2E7EC150008EC150008EC15000825
:10159C00F015000803460244934200D1704703F84B
:1015AC00011BF9E7F8B500BFF8BC08BC9E467047B4
:0C15BC00F8B500BFF8BC08BC9E467047A4
:1015C800030406080C10182030000000000000007A
:1015D80000000000010203040607080900000000DB
:0415E80001020304F5
:0415EC006101000891
:0415F0003D010008B1
:0415F40068FF1F006D
:040000050800150DCD
:00000001FF
