:020000040800F2
:10000000004000202D190008CD180008CF18000866
:10001000D1180008D3180008D51800080000000007
:10002000000000000000000000000000D7180008D9
:10003000D918000800000000DB180008DD180008CF
:100040007519000875190008751900087519000858
:100050007519000875190008751900087519000848
:100060007519000875190008751900087519000838
:100070007519000875190008751900087519000828
:100080007519000875190008751900087519000818
:100090007519000875190008751900087519000808
:1000A00075190008751900087519000875190008F8
:1000B00075190008751900087519000875190008E8
:1000C00075190008751900087519000875190008D8
:1000D00075190008751900087519000875190008C8
:1000E00075190008751900087519000875190008B8
:1000F00075190008000000000000000075190008D4
:1001000000000000000000007519000875190008C3
:10011000751900087519000875190008000000001D
:100120007519000800000000000000000000000039
:0C01300000000000000000005FF808F173
:10013C0010B5054C237833B9044B13B10448AFF315
:10014C0000800123237010BD680000200000000017
:10015C003024000808B5034B1BB103490348AFF327
:10016C00008008BD000000006C0000203024000856
:10017C0010B50446074B1868074BA3FB00308009E9
:10018C0000F06CF8002221464FF0FF3000F032F8FE
:10019C00002010BD00000020D34D621008B50320D4
:1001AC0000F016F80020FFF7E3FF01F02BFB002016
:1001BC0008BD0000024A136801331360704700BF8A
:1001CC0090000020014B1868704700BF9000002081
:1001DC00074AD36823F4E0631B041B0C000200F4F1
:1001EC00E060184340F0BF6040F40030D0607047CE
:1001FC0000ED00E030B4174BDB68C3F30223C3F10E
:10020C000704042C28BF04241D1D062D18D9033BFC
:10021C004FF0FF3505FA04F421EA0401994005FA80
:10022C0003F322EA0303194300280BDB0901C9B2CB
:10023C0000F1604000F5614080F8001330BC70475D
:10024C000023E5E700F00F000901C9B2024B195475
:10025C00F4E700BF00ED00E014ED00E00138B0F170
:10026C00807F0AD2064B5860064AF02182F8231090
:10027C000020986007221A6070470120704700BF69
:10028C0010E000E000ED00E0F0B482B0002336E0B6
:10029C00032400E00024B4403C430235584E46F899
:1002AC002540584C2568D44304EA05064F6817F4DA
:1002BC00803F01D042EA0506524D2E606D6804EA7B
:1002CC0005064F6817F4003F01D042EA05064D4D74
:1002DC006E60AD6804EA05064F6817F4801F01D004
:1002EC0042EA0506474DAE60ED682C404E6816F4A8
:1002FC00001F01D042EA0504424AD46001330A6867
:10030C0032FA03F479D001249C402240F6D04D6897
:10031C00022D01D0122D10D1DE08083650F826C05F
:10032C0003F00705AF000F25BD402CEA050C0D6945
:10033C00BD4045EA0C0540F8265006685F000325D1
:10034C00BD40ED4305EA060C4E6806F00306BE40C0
:10035C0046EA0C0606604E6806F1FF3CBCF1010F44
:10036C0003D9112E01D0122E10D1866805EA060C85
:10037C00CE68BE4046EA0C068660466826EA04044F
:10038C004E68C6F300169E4026434660C46825405E
:10039C008C68BC402C43C4604C6814F0805FADD0BA
:1003AC00194C256A45F001052562246A04F0010404
:1003BC000194019C9D08AE1C114C54F8267003F05E
:1003CC000304A6000F24B44027EA04070F4CA042F4
:1003DC003FF460AF04F58064A0420AD004F5806459
:1003EC00A04208D004F58064A0423FF451AF05242C
:1003FC0051E701244FE702244DE702B0F0BC7047EF
:10040C00000001400004014000380240000002409E
:10041C0012B90904816170478161704782B0214B28
:10042C009B6813F0F00F2CD11E4B5B6A13F0805FAE
:10043C0008D01D4B1B6803F4C053B3F5C05F14D038
:10044C0000211FE0174A536A43F080535362536AEA
:10045C0003F080530193019B134B1B6803F4C053AF
:10046C00516A21F080515162E7E7B0F5404F01D05D
:10047C00002107E00D4A136843F0040313600121C7
:10048C0000E00021094A136823F001030B431360B9
:10049C00136803F001038B4202D0012002B07047B5
:1004AC000020FBE70038024000700040003C024096
:1004BC0070B582B00446036813F0010F37D0754B4A
:1004CC009B6803F00C03082B1AD0724B9B6803F04B
:1004DC000C030C2B0FD06368012B66D0002B40F063
:1004EC0088806C4B1A6822F480321A601A6822F4E5
:1004FC0080221A605EE0674B9B6813F4803FEAD061
:10050C004FF4003393FAA3F3624B19684FF40033A2
:10051C0093FAA3F3B3FA83F303F01F03012202FA55
:10052C0003F30B4203D06368002B00F0788323683D
:10053C0013F0020F00F0BF80564B9B6803F00C03C6
:10054C00042B00F09080534B9B6803F00C030C2B96
:10055C0000F08380E368002B00F04B81012292FABB
:10056C00A2F3B3FA83F303F1845303F58E139B00C8
:10057C001A60FFF727FE0546022393FAA3F3454BB7
:10058C001968022393FAA3F3B3FA83F303F01F035E
:10059C00012202FA03F30B4240F01B81FFF712FE1B
:1005AC00401B0228E8D9032040E33A4A136843F47D
:1005BC0080331360636893B3FFF704FE05464FF472
:1005CC00003393FAA3F3334B19684FF4003393FAC7
:1005DC00A3F3B3FA83F303F01F03012202FA03F32C
:1005EC000B42A4D1FFF7EEFD401B6428E7D9032092
:1005FC001CE3052B09D0274B1A6822F480321A60B1
:10060C001A6822F480221A60D4E7224B1A6842F44A
:10061C0080221A601A6842F480321A60CAE7FFF727
:10062C00D1FD05464FF4003393FAA3F3194B196827
:10063C004FF4003393FAA3F3B3FA83F303F01F03DD
:10064C00012202FA03F30B423FF471AFFFF7BAFD3C
:10065C00401B6428E6D90320E8E20E4B9B6813F498
:10066C00803F7FF477AF022393FAA3F3094B196809
:10067C00022393FAA3F3B3FA83F303F01F030122CB
:10068C0002FA03F30B4207D0E368934204D0012033
:10069C00CCE200BF00380240C148436823F4F85351
:1006AC0021694FF4F85292FAA2F2B2FA82F201FAEC
:1006BC0002F213434360236813F0100F5CD0B84B65
:1006CC009B6813F00C0F40F0D8804FF4007393FA32
:1006DC00A3F3B34B19684FF4007393FAA3F3B3FA73
:1006EC0083F303F01F03012202FA03F30B4203D03E
:1006FC00A369002B00F09582206AA94B5B6803F478
:10070C006043984240F29D80FFF788FE002840F03D
:10071C008A82A3494B6823F46043226A13434B60DB
:10072C004B6823F07F43E0694FF07F4292FAA2F2CC
:10073C00B2FA82F200FA02F213434B60236A4FF4CE
:10074C00604292FAA2F2B2FA82F2D3405A1C4FF4EF
:10075C0000439340924A926802F0F002F02191FA21
:10076C00A1F1B1FA81F1CA408E498A5CD3408E4A1C
:10077C0013600020FFF7FCFC236813F0080F00F057
:10078C0017816369002B00F0E680012191FAA1F238
:10079C00B2FA82F2854B13449B001960FFF712FDED
:1007AC000546022393FAA3F27D4A516B93FAA3F305
:1007BC00B3FA83F303F01F03012202FA03F30B4293
:1007CC0040F0F680FFF7FEFC401B0228E9D903201D
:1007DC002CE27348436823F4F85321694FF4F85220
:1007EC0092FAA2F2B2FA82F201FA02F213434360D5
:1007FC0061E7012393FAA3F3B3FA83F303F1845370
:10080C0003F58E139B0000221A60FFF7DBFC0546F4
:10081C00022393FAA3F3624B1968022393FAA3F30E
:10082C00B3FA83F303F01F03012202FA03F30B4222
:10083C003FF441AFFFF7C6FC401B0228E8D9032068
:10084C00F4E157494B6823F46043184348604B6804
:10085C0023F07F43E0694FF07F4292FAA2F2B2FAA2
:10086C0082F200FA02F213434B60206AFFF7D6FDC6
:10087C0000283FF463AF0120D8E1A369002B3FD0DF
:10088C004FF4807393FAA3F3B3FA83F303F1845315
:10089C0003F58E139B0001221A60FFF793FC0546AB
:1008AC004FF4007393FAA3F33D4B19684FF40073A4
:1008BC0093FAA3F3B3FA83F303F01F03012202FAB2
:1008CC0003F30B4206D1FFF77DFC401B0228E7D94E
:1008DC000320ABE132494B6823F46043226A134393
:1008EC004B604B6823F07F43E0694FF07F4292FAF4
:1008FC00A2F2B2FA82F200FA02F213434B603BE727
:10090C004FF4807393FAA3F3B3FA83F303F1845394
:10091C0003F58E139B0000221A60FFF753FC05466B
:10092C004FF4007393FAA3F31D4B19684FF4007343
:10093C0093FAA3F3B3FA83F303F01F03012202FA31
:10094C0003F30B423FF418AFFFF73CFC401B0228AB
:10095C00E6D903206AE1012292FAA2F2B2FA82F2FB
:10096C00124B13449B0000221A60FFF72BFC054628
:10097C00022393FAA3F20A4A516B93FAA3F3B3FA44
:10098C0083F303F01F03012202FA03F30B420FD08F
:10099C00FFF718FC401B0228EAD9032046E100BFF0
:1009AC00003802405424000800000020A0C191101F
:1009BC00236813F0040F00F092809E4B5B6A13F0D7
:1009CC00805F1ED19B4B5A6A42F080525A625B6A1E
:1009DC0003F080530193019B0125974B1B6813F483
:1009EC00807F10D0A368012B21D0002B43D1914BD9
:1009FC005A6B22F480725A635A6B22F480625A63E7
:100A0C001AE00025E9E78C4A136843F480731360FD
:100A1C00FFF7D8FB0646884B1B6813F4807FE1D1A7
:100A2C00FFF7D0FB801B6428F5D90320FEE0814A38
:100A3C00536B43F480735363A36893B3FFF7C2FB08
:100A4C0006464FF4007393FAA3F27A4A516B93FA69
:100A5C00A3F3B3FA83F303F01F03012202FA03F3A7
:100A6C000B423BD1FFF7AEFB801B41F2883398421F
:100A7C00E7D90320DAE0052B09D06E4B5A6B22F430
:100A8C0080725A635A6B22F480625A63D4E7694BC2
:100A9C005A6B42F480625A635A6B42F480725A6306
:100AAC00CAE7FFF78FFB06464FF4007393FAA3F2E5
:100ABC00604A516B93FAA3F3B3FA83F303F01F0369
:100ACC00012202FA03F30B4208D0FFF77BFB801BD9
:100ADC0041F288339842E7D90320A7E0B5BB636A9B
:100AEC00002B00F0A280534A926802F00C020C2AF0
:100AFC0000F09E80022B2FD04FF0807393FAA3F35B
:100B0C00B3FA83F303F1845303F58E139B00002295
:100B1C001A60FFF757FB04464FF0007393FAA3F3E8
:100B2C00444B19684FF0007393FAA3F3B3FA83F3B1
:100B3C0003F01F03012202FA03F30B426DD0FFF7FF
:100B4C0041FB001B0228E7D903206FE0394A536AA6
:100B5C0023F080535362C2E74FF0807393FAA3F3F0
:100B6C00B3FA83F303F1845303F58E139B00002235
:100B7C001A60FFF727FB05464FF0007393FAA3F3B7
:100B8C002C4B19684FF0007393FAA3F3B3FA83F369
:100B9C0003F01F03012202FA03F30B4206D0FFF706
:100BAC0011FB401B0228E7D903203FE021498B6849
:100BBC0023F47D03A26AE06A0243206B02431343D1
:100BCC008B604FF0807393FAA3F3B3FA83F303F1C2
:100BDC00845303F58E139B0001221A60FFF7F2FA7F
:100BEC0004464FF0007393FAA3F3124B19684FF0BD
:100BFC00007393FAA3F3B3FA83F303F01F030122F8
:100C0C0002FA03F30B4206D1FFF7DCFA001B0228B1
:100C1C00E7D903200AE0002008E0002006E00120CC
:100C2C0004E0012002E0012000E0002002B070BDD1
:100C3C000120FBE70038024000700040224B98680E
:100C4C0000F00C02082A3CD00C2A13D0042A0FD036
:100C5C001D4B586800F460404FF4604393FAA3F3C3
:100C6C00B3FA83F3D840431C4FF4004098407047CC
:100C7C001648704700F470114FF4701292FAA2F2F9
:100C8C00B2FA82F221FA02F211498A5C00F44000B5
:100C9C004FF4400393FAA3F3B3FA83F3D840013033
:100CAC00094B9B6813F4803F05D00A4B03FB02F3FE
:100CBC00B3FBF0F07047054B03FB02F3B3FBF0F012
:100CCC0070470448704700BF003802400024F4000D
:100CDC004824000800127A008D4B1B6803F00103B6
:100CEC008B4214D201290CD0894A136823F00103DA
:100CFC000B431360136803F001038B4207D00120F0
:100D0C007047834A136843F004031360ECE770B533
:100D1C00036813F0020F06D07E4A936823F0F003A9
:100D2C008468234393600C460546036813F0010F57
:100D3C0000F0A3804368022B18D0032B48D0012B62
:100D4C005BD04FF4007292FAA2F2724A10684FF420
:100D5C00007292FAA2F2B2FA82F202F01F020121A0
:100D6C0001FA02F2024215D10120CDE04FF400321B
:100D7C0092FAA2F2674A10684FF4003292FAA2F289
:100D8C00B2FA82F202F01F02012101FA02F20242CF
:100D9C0000F0BB805F498A6822F0030213438B602A
:100DAC00FFF710FA06466B68022B39D0032B46D09E
:100DBC00012B53D0574B9B6813F00C0F5DD0FFF7F2
:100DCC0001FA801B41F288339842F3D903209BE04F
:100DDC004FF0007292FAA2F24E4A10684FF0007275
:100DEC0092FAA2F2B2FA82F202F01F02012101FA87
:100DFC0002F20242CED1012086E0022292FAA2F245
:100E0C00444A1068022292FAA2F2B2FA82F202F07A
:100E1C001F02012101FA02F20242BBD1012073E050
:100E2C003C4B9B6803F00C03082B26D0FFF7CAF948
:100E3C00801B41F288339842F2D9032064E0354B91
:100E4C009B6803F00C030C2B17D0FFF7BBF9801B2E
:100E5C0041F288339842F2D9032055E02D4B9B6820
:100E6C0003F00C03042B08D0FFF7ACF9801B41F204
:100E7C0088339842F2D9032046E0254B1B6803F0D7
:100E8C000103A34214D9012C0CD0214A136823F07E
:100E9C00010323431360136803F00103A34207D03B
:100EAC00012031E01A4A136843F004031360ECE7A5
:100EBC002B6813F0040F06D0164A936823F4E063F2
:100ECC00E9680B4393602B6813F0080F07D0114AA5
:100EDC00936823F46053296943EAC1039360FFF7D5
:100EEC00ADFE0C4B9B6803F0F003F02292FAA2F2D9
:100EFC00B2FA82F2D340084AD35CD840074B186050
:100F0C000020FFF735F9002070BD0120FCE700BF81
:100F1C00003C02400038024054240008000000202D
:100F2C00014B1868704700BF0000002008B5FFF7A0
:100F3C00F7FF074B9B6803F4E0634FF4E06292FA0F
:100F4C00A2F2B2FA82F2D340024AD35CD84008BD76
:100F5C00003802406424000808B5FFF7E1FF074B96
:100F6C009B6803F460534FF4605292FAA2F2B2FA07
:100F7C0082F2D340024AD35CD84008BD003802400C
:100F8C00642400082DE9F84304460268136923F42D
:100F9C004053C1680B431361836802691343426970
:100FAC001343C2691A430168CB6823F4164323F038
:100FBC000C031343CB600268536923F440738169BB
:100FCC000B435361C369B3F5004F5CD00268B34B5C
:100FDC009A4200F00C81FFF7A9FF00EB800000EBB8
:100FEC0080006568AD00B0FBF5F5AD4FA7FB05358E
:100FFC006D092E01FFF79AFF00EB800000EB8000DB
:10100C006568AD00B0FBF5F9FFF790FF00EB8000D1
:10101C0000EB80006568AD00B0FBF5F5A7FB05356E
:10102C006D094FF0640808FB15952D013235A7FBAF
:10103C0005356D0905F0F0053544FFF777FF00EB3A
:10104C00800000EB80006668B600B0FBF6F6FFF798
:10105C006DFF00EB800000EB800063689B00B0FB31
:10106C00F3F0A7FB0030400908FB10684FEA0818A2
:10107C0008F13208A7FB0837C7F3431723682F443E
:10108C009F60BDE8F8830268844B9A4257D0FFF703
:10109C004DFF00EB800000EB800065686D00B0FB3D
:1010AC00F5F57F4FA7FB05356D092E01FFF73EFFC8
:1010BC0000EB800000EB800065686D00B0FBF5F97B
:1010CC00FFF734FF00EB800000EB800065686D00DB
:1010DC00B0FBF5F5A7FB05356D094FF0640808FB6F
:1010EC001595ED003235A7FB05356D096D0005F43E
:1010FC00F8753544FFF71AFF00EB800000EB800019
:10110C0066687600B0FBF6F6FFF710FF00EB800088
:10111C0000EB800063685B00B0FBF3F3A7FB0323D9
:10112C005B0908FB13684FEAC80808F13208A7FBF3
:10113C000837C7F3421723682F449F60A1E7FFF7D6
:10114C000BFF00EB800000EB800065686D00B0FBCE
:10115C00F5F5534FA7FB05356D092E01FFF7FCFE86
:10116C0000EB800000EB800065686D00B0FBF5F9CA
:10117C00FFF7F2FE00EB800000EB800065686D006D
:10118C00B0FBF5F5A7FB05356D094FF0640808FBBE
:10119C001595ED003235A7FB05356D096D0005F48D
:1011AC00F8753544FFF7D8FE00EB800000EB8000AB
:1011BC0066687600B0FBF6F6FFF7CEFE00EB80001B
:1011CC0000EB800063685B00B0FBF3F3A7FB032329
:1011DC005B0908FB13684FEAC80808F13208A7FB43
:1011EC000837C7F3421723682F449F6049E7FFF77E
:1011FC00B3FE00EB800000EB80006568AD00B0FB37
:10120C00F5F5274FA7FB05356D092E01FFF7A4FE59
:10121C0000EB800000EB80006568AD00B0FBF5F9D9
:10122C00FFF79AFE00EB800000EB80006568AD00D4
:10123C00B0FBF5F5A7FB05356D094FF0640808FB0D
:10124C0015952D013235A7FB05356D0905F0F00517
:10125C003544FFF781FE00EB800000EB80006668F0
:10126C00B600B0FBF6F6FFF777FE00EB800000EB64
:10127C00800063689B00B0FBF3F3A7FB03235B09BF
:10128C0008FB13684FEA081808F13208A7FB083767
:10129C00C7F3431723682F449F60F2E600380140E0
:1012AC001F85EB512DE9F04105460E4690461C4634
:1012BC00FEF788FF0746B8F1000F29D02B681B6892
:1012CC0036EA030351D1B4F1FF3FF7D024B1FEF756
:1012DC0079FFC01BA042F1D92A68D36823F08003A0
:1012EC00D3602A68D36823F02003D3602A68D368BC
:1012FC0023F48073D3602A68536923F0010353618C
:10130C00012385F83930002385F8383003202AE092
:10131C002B681B6836EA030324D0B4F1FF3FF7D0E7
:10132C0024B1FEF74FFFC01BA042F1D92A68D36845
:10133C0023F08003D3602A68D36823F02003D360A2
:10134C002A68D36823F48073D3602A68536923F026
:10135C0001035361012385F83930002385F83830B7
:10136C00032000E00020BDE8F0810020FBE748B33B
:10137C0010B5044690F83930FBB1022384F83930AB
:10138C002268D36823F40053D3602046FFF7FAFD9C
:10139C002268136923F4904313612268536923F084
:1013AC002A0353612268D36843F40053D3600020AE
:1013BC00E063012384F8393010BD80F8383000F038
:1013CC0047FADAE70120704770B504460D461E4611
:1013DC0090F83930DBB2012B01D0222B59D1002DE2
:1013EC005AD0002A5AD094F83830012B58D0012307
:1013FC0084F838300023E36394F83930DBB2222BC5
:10140C0005D0122384F83930A284E28413E032230D
:10141C0084F83930F8E73346002280212046FFF764
:10142C0041FF00283ED12B882268C3F30803536088
:10143C002369A3B90235E38C9BB1013BE384A36818
:10144C00B3F5805FE7D03346002280212046FFF7BA
:10145C0029FF48BB2A7823685A600135EBE7013530
:10146C00E9E73346002240212046FFF71BFF0346E5
:10147C00E0B994F83920D2B2322A06D0012284F88D
:10148C003920002284F8382004E0222284F8392004
:10149C00F7E70223184670BD0123FBE70123F9E7A8
:1014AC000223F7E70323F5E70323F3E70323F1E72D
:1014BC0070B504460D461E4690F83930DBB2012B50
:1014CC0001D0122B5FD1002D5FD0002A5FD094F891
:1014DC003830012B5DD0012384F838300023E363CE
:1014EC0094F83930DBB2122B05D0222384F8393032
:1014FC00A285E28520E0322384F83930F8E73346C0
:10150C00002220212046FFF7CDFE002843D123697D
:10151C0033B923685B68C3F3080325F8023B0BE07F
:10152C0023685B68DBB225F8013B05E023685B6848
:10153C0003F07F032B700135E38DA3B1013BE385F1
:10154C00A368B3F5805FDAD0334600222021204611
:10155C00FFF7A8FE08BB2369002BE7D123685B6863
:10156C002B700135E8E794F83930DBB2322B06D01A
:10157C00012384F83930002084F8380004E0122369
:10158C0084F83930F7E7022070BD0120FCE7012018
:10159C00FAE70220F8E70320F6E70320F4E700005F
:1015AC00F0B58BB000240594069407940894099424
:1015BC00284BDA6942F00402DA61DA6902F00402BB
:1015CC000192019ADA6942F02002DA61DA6902F0DA
:1015DC0020020292029ADA6942F00102DA61DA69B7
:1015EC0002F001020392039ADA6942F00202DA6114
:1015FC00DB6903F002030493049B174F22464FF45C
:10160C0000513846FEF704FF144E22464FF4407149
:10161C003046FEF7FDFE01250595114B0693079408
:10162C0005A91048FEF730FE4FF4005305930695BC
:10163C000794089405A93846FEF726FE4FF440732C
:10164C00059306950794089405A93046FEF71CFEF1
:10165C000BB0F0BD0038024000040240000802400C
:10166C00000012100000024008B50848084B036047
:10167C004FF4E133436000238360C36003610C22A9
:10168C0042618361C361FFF772FE08BD94000020C4
:10169C000038014030B593B03422002105A800F089
:1016AC008FF9002400940194029403940494124A38
:1016BC00136823F4C05343F40063136002230593AF
:1016CC0001250895102209920E930F944FF40023D4
:1016DC0010934FF40003119305A8FEF7E9FE0F23B6
:1016EC0000930323019302940394049429466846BF
:1016FC00FFF7F2FA13B030BD0070004008B5FEF7EA
:10170C004DFDFFF7C7FFFFF74BFFFFF7ADFF03489A
:10171C0000F008F8024800F0B7F9FBE7940000204D
:10172C006C24000808B5054B1860054B186800239D
:10173C0002221946806800F0AFF908BDD4000020E1
:10174C0004000020022801D80120704708B500F0E1
:10175C000DF909230360002008BD000010B5013805
:10176C0001280AD814464FF0FF3392B2074800689C
:10177C00FFF72AFE40B9204610BD00F0F7F8092308
:10178C0003604FF0FF30F7E70520F5E7D4000020A9
:10179C00022801D80020704708B500F0E7F80923AB
:1017AC0003604FF0FF3008BD08B500F0DFF80923E7
:1017BC0003604FF0FF3008BD08B548B94FF0FF3358
:1017CC00012208480068FFF773FE40B9012008BDEC
:1017DC0000F0CCF8092303604FF0FF30F7E7052049
:1017EC00F5E700BFD400002008B5022804D84FF458
:1017FC0000534B60002008BD00F0B8F809230360CB
:10180C00F8E7000000B585B0104B5A6A42F0004270
:10181C005A625A6A02F000420192019A1A6A42F024
:10182C0001021A621A6A02F001020292029A5A6AC0
:10183C0042F080525A625B6A03F080530393039B1D
:10184C000720FEF7C5FC05B05DF804FB003802402C
:10185C0000B589B000230393049305930693079373
:10186C000268154B9A4202D009B05DF804FB03F5EF
:10187C0080331A6A42F480421A621A6A02F4804275
:10188C000192019ADA6942F00102DA61DB6903F034
:10189C0001030293029B4FF4C0630393022304934E
:1018AC0001230593032306930723079303A90348F6
:1018BC00FEF7EAFCD8E700BF003801400000024008
:1018CC007047FEE7FEE7FEE7FEE77047704770479C
:1018DC0008B5FEF76FFC08BD0E4B1A6842F4807217
:1018EC001A6099680C4A0A409A601A6822F0885269
:1018FC0022F001121A601A6822F480221A609A6887
:10190C0022F47D029A600022DA60044B4FF00062F0
:10191C009A607047003802400CC0FF8800ED00E070
:10192C00002103E00B4B5B58435004310A480B4B2E
:10193C0042189A42F6D30A4A02E0002342F8043BCA
:10194C00084B9A42F9D3FFF7C7FF00F015F8FFF7E1
:10195C00D5FE7047F8240008000000206800002025
:10196C0068000020DC000020FEE70000014B186836
:10197C00704700BF0400002070B500250C4E0D4CC4
:10198C00A41BA410A54209D100F04CFD00250A4E61
:10199C000A4CA41BA410A54205D170BD56F82530E5
:1019AC0098470135EEE756F8253098470135F2E7B0
:1019BC00F0240008F0240008F0240008F4240008A7
:1019CC0003460244934200D1704703F8011BF9E728
:1019DC0070B50E46054618B183690BB900F0BAFA1A
:1019EC00AB69AC6813B9284600F0B4FA234B9C429F
:1019FC0017D16C68A3891B071DD52369DBB1013E88
:101A0C00A36816F8011F013BA360E9B9002B2EDA7D
:101A1C0022460A21284600F0EDF8013011D00A20A8
:101A2C0011E0174B9C4201D1AC68E3E7154B9C428B
:101A3C0008BFEC68DEE72146284600F02DF90028A7
:101A4C00DDD04FF0FF3070BD002B04DAA2699A4252
:101A5C0006DC0A2904D023685A1C22601970CFE7CF
:101A6C002246284600F0C6F80130C9D1E9E70A2021
:101A7C0023685A1C22601870E5E700BFB0240008E8
:101A8C00D024000890240008024B01461868FFF788
:101A9C009FBF00BF040000202DE9F7431D46514BAA
:101AAC0004461E680F46904626B1B36913B93046FA
:101ABC0000F050FA4C4B9C4252D17468B8F1020FB2
:101ACC0006D0B8F1010F00F28980002DC0F286809B
:101ADC002146304600F0D4F9616B41B104F1440366
:101AEC00994202D0304600F02BFB002363630023A5
:101AFC00A3616360A3891B0603D52169304600F0FE
:101B0C001FFBA389B8F1020F23F44A6323F00303EC
:101B1C00A3815DD001AB6A462146304600F0A4FAA1
:101B2C00A3891843A0812DBB009D284600F000FB23
:101B3C00074600284ED1DDF80090A9453CD14FF066
:101B4C00FF30A38943F00203A3810023A36004F1B7
:101B5C004703236023610123636103B0BDE8F08375
:101B6C00224B9C4201D1B468A8E7214B9C4208BF90
:101B7C00F468A3E7002FD8D0B36913B9304600F04E
:101B8C00E9F9B8F1010F08BFA389276004BF43F03E
:101B9C000103A381A389C4E9047513F008001BD0C9
:101BAC0013F001004FF000031FBF6D42A360A5614D
:101BBC00184608BFA560D0E7484600F0B9FA0746BA
:101BCC000028BCD0A3894D4643F08003A381D3E702
:101BDC000020B6E7A946F5E7A060BEE74FF0FF305E
:101BEC00BBE700BF04000020B0240008D02400088C
:101BFC0090240008F8B50E461446054618B18369C2
:101C0C000BB900F0A7F9214B9C422AD16C68A3694F
:101C1C00A360A3891A072ED5236963B323692068AF
:101C2C00F6B2C01A63693746834204DC2146284663
:101C3C0000F026F928BBA3680130013BA3602368A0
:101C4C005A1C22601E706369834204D0A389DB078F
:101C5C0019D50A2E17D12146284600F011F990B15A
:101C6C000FE00B4B9C4201D1AC68D0E7094B9C4276
:101C7C0008BFEC68CBE72146284600F00DF8002899
:101C8C00CCD04FF0FF373846F8BD00BFB024000869
:101C9C00D024000890240008324B70B51D6806460D
:101CAC000C4625B1AB6913B9284600F053F92E4BFD
:101CBC009C420FD16C68B4F90C309AB215072CD435
:101CCC00D00611D40922326043F04003A3814FF0B7
:101CDC00FF303EE0254B9C4201D1AC68EBE7244B36
:101CEC009C4208BFEC68E6E7510712D5616B41B125
:101CFC0004F14403994202D0304600F021FA00234B
:101D0C006363A38923F02403A38100236360236905
:101D1C002360A38943F00803A38123694BB9A389EA
:101D2C0003F42073B3F5007F03D02146304600F056
:101D3C00BFF9A28912F001030CD00023A3606369E0
:101D4C005B42A361236953B9B4F90C3013F08000E2
:101D5C00BAD170BD920758BF6369A360F2E7002047
:101D6C00F7E700BF04000020B0240008D0240008CE
:101D7C00902400088A892DE9F041054610070C468D
:101D8C0058D44B68002B05DC0B6C002B02DC0020BC
:101D9C00BDE8F081E66A002EF9D0002312F48052DF
:101DAC002F68216A2B6032D0606DA3895A0705D544
:101DBC006368C01A636B0BB1236CC01A0023024614
:101DCC00E66A216A2846B047431CA38906D12968D4
:101DDC001D2948D8294ACA40D60744D5002262603A
:101DEC002269D904226004D5421C01D12B6803B9A5
:101DFC006065616B2F600029C9D004F144039942DE
:101E0C0002D0284600F09CF900206063C0E7012353
:101E1C002846B047411CC8D12B68002BC5D01D2BC0
:101E2C0001D0162B01D12F60B1E7A38943F04003F9
:101E3C00A381ADE70F69002FA9D0930718BF00232A
:101E4C000E6808BF4B69A6EB07080F608B60B8F1F2
:101E5C00000F9CDD43463A46216A2846A66AB047E5
:101E6C00002806DCA38943F04003A3814FF0FF3028
:101E7C008EE70744A8EB0008E9E700BF010040200B
:101E8C0038B50B6905460C46DBB118B183690BB943
:101E9C0000F060F80C4B9C4209D16C68B4F90C3022
:101EAC007BB121462846BDE83840FFF763BF074B9E
:101EBC009C4201D1AC68F1E7054B9C4208BFEC6831
:101ECC00ECE7002038BD00BFB0240008D024000887
:101EDC0090240008002310B50446C0E90033836049
:101EEC0081814366C281C0E90433836119460822AB
:101EFC005C30FFF765FD054B24626362044BA36203
:101F0C00044BE362044B236310BD00BFB9220008ED
:101F1C00DB2200081323000837230008014900F0D6
:101F2C0085B800BF8D1E000870B568254A1E554344
:101F3C000E4605F1740100F04FF9044640B1002142
:101F4C00C0E900160C30A06005F16802FFF738FDFF
:101F5C00204670BD836910B5044633BBC0E912330B
:101F6C000365124B124A1B688262984204BF01231C
:101F7C00836100F01FF86060204600F01BF8A06041
:101F8C00204600F017F80022E06004216068FFF79B
:101F9C00A1FF01220921A068FFF79CFF0222122158
:101FAC00E068FFF797FF0123A36110BD8C240008A4
:101FBC00291F0008F8B51B4B07461E68B36913B9F7
:101FCC003046FFF7C7FF4836D6E90134013B03D54D
:101FDC00336833B13668F7E7B4F90C506DB1683437
:101FEC00F4E704213846FFF79FFF30600028F1D159
:101FFC000C2304463B602046F8BD0B4B6566C4E9D8
:10200C000055A560C4E90335C4E9055508222946E5
:10201C0004F15C00FFF7D4FCC4E90D55C4E912557A
:10202C00E9E700BF8C2400080100FFFF2DE9F8430D
:10203C0080468946002600F1480414B93046BDE8B4
:10204C00F883D4E90175013F01D52468F5E7AB8924
:10205C00012B07D9B5F90E30013303D02946404680
:10206C00C84706436835EEE770B50E46B1F90E1059
:10207C0096B0002914461D4607DA00232B60B3895D
:10208C001A0610D44FF480630EE06A4600F074F91F
:10209C000028F2DB019A02F47042A2F500535A4276
:1020AC005A412A60EEE740230020236016B070BD31
:1020BC008B8973B59D0706460C4607D504F147037B
:1020CC00236023610123636102B070BD01AB6A46DA
:1020DC00FFF7CAFF00990546304600F07DF848B975
:1020EC00B4F90C309A05EFD423F0030343F0020348
:1020FC00A381E3E70D4BB362A389206043F0800317
:10210C00A381009B20616361019B5BB1B4F90E104C
:10211C00304600F043F928B1A38923F0030343F0C0
:10212C000103A381A3891D43A581CDE7291F0008C5
:10213C00024B0146186800F04FB800BF04000020A5
:10214C0038B50546002943D051F8043C0C1F002B30
:10215C00B8BFE41800F044F91E4A1368104633B9AE
:10216C00636014602846BDE8384000F03AB9A342D9
:10217C000BD921686218934201BF1A685B68521828
:10218C00226063600460EDE713465A680AB1A2420C
:10219C00FAD919685818A0420BD120680144581874
:1021AC0082421960DED110685268014419605A608D
:1021BC00D8E702D90C232B60D4E7206821188A4277
:1021CC0001BF116852680918216062605C60C9E740
:1021DC0038BD00BF8400002070B5CD1C25F0030570
:1021EC0008350C2D38BF0C25002D064601DBA94205
:1021FC0003D90C233360002070BD00F0F1F8214AA4
:10220C001468214691B9204C23681BB9304600F064
:10221C003DF820602946304600F038F8431C24D1A4
:10222C000C233046336000F0DCF8E4E70B685B1BF2
:10223C0018D40B2B0FD90B60CC18CD50304600F0B6
:10224C00D0F804F10B00231D20F00700C31AD3D0E3
:10225C005A42E250D0E74B688C4216BF6360136061
:10226C000C46EBE70C464968CCE7C41C24F003048D
:10227C00A04205D0211A304600F008F80130CFD02A
:10228C002560DBE7840000208800002038B500239F
:10229C00054C05460846236000F0B6F8431C02D1F5
:1022AC00236803B12B6038BDD800002010B50C4654
:1022BC00B1F90E1000F096F80028ABBF636DA3893E
:1022CC001B1823F48053ACBF6365A38110BD2DE9AB
:1022DC00F0411F468B890546DB050C46164605D595
:1022EC0002230022B1F90E1000F068F8A3893246DF
:1022FC0023F48053A381B4F90E103B462846BDE865
:10230C00F04100F017B810B50C46B1F90E1000F002
:10231C0055F8431CA38915BF606523F4805343F41F
:10232C008053A38118BFA38110BDB1F90E1000F02A
:10233C0013B8000038B50546084611460022054C76
:10234C0022601A46FFF70AFA431C02D1236803B134
:10235C002B6038BDD800002038B50023054C05464D
:10236C0008462360FFF714FA431C02D1236803B11B
:10237C002B6038BDD800002038B50023064C05462C
:10238C00084611462360FFF72FFA431C02D123683D
:10239C0003B12B6038BD00BFD800002038B5002336
:1023AC00054C054608462360FFF7CCF9431C02D1C7
:1023BC00236803B12B6038BDD800002038B5054622
:1023CC00084611460022054C22601A46FFF7ECF92C
:1023DC00431C02D1236803B12B6038BDD800002008
:1023EC007047704738B50546084611460022054C23
:1023FC0022601A46FFF7E0F9431C02D1236803B1AF
:10240C002B6038BDD8000020044A05491368002B06
:10241C0008BF0B4618441060184670478C0000200B
:10242C00E0000020F8B500BFF8BC08BC9E46704721
:0C243C00F8B500BFF8BC08BC9E46704715
:10244800030406080C1018203000000000000000EB
:10245800000000000102030406070809000000004C
:102468000102030468656C6C6F20686172727920E0
:102478000D00000068656C6C6F20686172727920CD
:102488000D0A000008000020000000000000000005
:102498000000000000000000000000000000000034
:1024A8000000000000000000000000000000000024
:1024B8000000000000000000000000000000000014
:1024C8000000000000000000000000000000000004
:1024D80000000000000000000000000000000000F4
:0824E8000000000000000000EC
:0424F000610100087E
:0424F4003D0100089E
:1024F80068FF1F000800002000000000B02400084A
:10250800D02400089024000800000000000000000B
:1025180000000000000000000000000000000000B3
:1025280000000000000000000000000000000000A3
:102538000000000000000000000000000000000093
:102548000000000000000000000000000000000083
:0825580000000000000000007B
:040000050800192DA9
:00000001FF
